:1010300075BA8090FE0374C0F090FE03E030E0F9D2
:0E10400090FE01E4F090FE0004F0E4F5BA2208
:06115700E4F594F593227B
:0E10F20000007F167E037DE3DDFEDEFCDFFAEC
:0111000022CC
:0E11010000007F2B7E067DCBDDFEDEFCDFFADC
:01110F0022BD
:0E11100000007F057E347DC3DDFEDEFCDFFACD
:01111E0022AE
:100003000000000000000000002F000000000700B7
:10001300070000147F147F1400242A7F2A12006231
:1000230064081323003649552250000005030000DD
:1000330000001C224100000041221C000014083E65
:1000430008140008083E0808000000A0600000082B
:10005300080808080000606000000020100804027F
:10006300003E5149453E0000427F4000004261513D
:100073004946002141454B31001814127F100027D7
:1000830045454539003C4A4949300001710905039A
:1000930000364949493600064949291E00003636CB
:1000A300000000005636000000081422410000142E
:1000B300141414140000412214080002015109060B
:1000C30000324959513E007C1211127C007F49498C
:1000D3004936003E41414122007F4141221C007FBD
:1000E30049494941007F09090901003E4149497ACB
:1000F300007F0808087F0000417F41000020404145
:100103003F01007F08142241007F40404040007FB0
:10011300020C027F007F0408107F003E4141413EF4
:10012300007F09090906003E4151215E007F09193C
:1001330029460046494949310001017F0101003F39
:100143004040403F001F2040201F003F4038403FB9
:10015300006314081463000708700807006151491D
:10016300454300007F41410000552A552A550000B0
:1001730041417F000004020102040040404040402E
:10018300000001020400002054545478007F4844C6
:10019300443800384444442000384444487F0038FD
:1001A3005454541800087E0901020018A4A4A47C26
:1001B300007F080404780000447D400000408084F0
:1001C3007D00007F102844000000417F4000007C38
:1001D30004180478007C0804047800384444443844
:1001E30000FC242424180018242418FC007C080490
:1001F300040800485454542000043F444020003C69
:100203004040207C001C2040201C003C4030403CEF
:10021300004428102844001CA0A0A07C004464547F
:100223004C441414141414140000000000000000C3
:100233000000000000000000000000F800000000C3
:10024300000000333000000000100C06100C060004
:10025300000000000000000040C07840C07840006B
:10026300043F04043F040400007088FC08300000CD
:10027300001820FF211E0000F008F000E018000025
:1002830000211C031E211E0000F0088870000000DE
:100293001E2123241927211010160E000000000030
:1002A3000000000000000000000000E0180402004D
:1002B300000000071820400000020418E0000000BE
:1002C3000040201807000000404080F080404000BC
:1002D3000202010F01020200000000F00000000012
:1002E3000101011F010101000000000000000000E6
:1002F30080B070000000000000000000000000005B
:1003030000010101010101010000000000000000E3
:10031300003030000000000000000000806018047E
:10032300006018060100000000E010080810E0005B
:10033300000F102020100F00001010F80000000024
:100343000020203F2020000000700808088870006B
:1003530000302824222130000030088888483000EB
:100363000018202020110E000000C02010F800000B
:1003730000070424243F240000F8088888080800A4
:100383000019212020110E0000E0108888180000B9
:10039300000F112020110E0000380808C83808008B
:1003A3000000003F0000000000708808088870000B
:1003B300001C222121221C0000E010080810E0008C
:1003C3000000312222110F00000000C0C000000015
:1003D300000000303000000000000080000000003A
:1003E3000000806000000000000080402010080032
:1003F30000010204081020004040404040404000FB
:1004030004040404040404000008102040800000D5
:100413000020100804020100007048080808F000DA
:100423000000003036010000C030C828E810E000AA
:100433000718272423140B000000C038E000000035
:10044300203C23020227382008F88888887000009F
:10045300203F202020110E00C03008080808380073
:10046300071820202010080008F808080810E000EA
:10047300203F202020100F0008F88888E80810008B
:10048300203F20202320180008F88888E80810005F
:10049300203F200003000000C03008080838000097
:1004A30007182020221E020008F808000008F80898
:1004B300203F210101213F20000808F8080800001F
:1004C3000020203F2020000000000808F808080052
:1004D300C08080807F00000008F888C028180800CA
:1004E300203F20012638200008F808000000000003
:1004F300203F20202020300008F8F800F8F80800FA
:10050300203F003F003F200008F830C00008F808F3
:10051300203F200007183F00E01008080810E00003
:100523000F10202020100F0008F808080808F0001A
:10053300203F210101010000E01008080810E0003D
:100543000F18242438504F0008F8888888887000D2
:10055300203F2000030C3020007088080808380072
:100563000038202121221C00180808F80808180068
:100573000000203F2000000008F808000008F808E9
:10058300001F202020201F000878880000C838089A
:10059300000007380E010000F80800F80008F80012
:1005A300033C0700073C03000818688080681808AC
:1005B30020302C03032C30200838C800C83808002A
:1005C3000000203F2000000010080808C838080079
:1005D3002038262120201800000000FE020202001D
:1005E3000000007F40404000000C30C000000000CD
:1005F300000000010638C00000020202FE000000F5
:10060300004040407F00000000000402020204009A
:1006130000000000000000000000000000000000D7
:1006230080808080808080800002020400000000BF
:1006330000000000000000000000808080800000B7
:100643000019242222223F2008F8008080000000A5
:10065300003F112020110E00000000808080000068
:10066300000E112020201100000000808088F80077
:10067300000E112020103F200000808080800000A9
:10068300001F222222221300008080F0888888180D
:100693000020203F20200000000080808080800018
:1006A300006B94949493600008F8008080800000AD
:1006B300203F210000203F20008098980000000088
:1006C3000020203F202000000000008098980000B8
:1006D30000C08080807F000008F8000080808000D8
:1006E300203F24022D302000000808F800000000FD
:1006F3000020203F202000008080808080808000B8
:10070300203F20003F20003F808000808080000049
:10071300203F210000203F200000808080800000D7
:10072300001F202020201F00808000808000000008
:1007330080FFA12020110E00000000808080800037
:10074300000E112020A0FF80808080008080800028
:1007530020203F2120000100000080808080800055
:100763000033242424241900008080E080800000CA
:100773000000001F20200000808000000080800017
:10078300001F202020103F20808080000080808078
:1007930000010E3008060100808000800080808008
:1007A3000F300C030C300F0000808000808080002D
:1007B3000020312E0E312000808080000080808058
:1007C30080818E7018060100008080808080800008
:1007D3000021302C2221300000000000807C020226
:1007E30000000000003F404000000000FF00000048
:1007F30000000000FF0000000002027C80000000F7
:100803000040403F00000000000601010202040412
:100813000000000000000000004042445840407FB8
:1008230040405048C60000000000000000000000E7
:1008330000000000000000000040444444444444DD
:1008430044444444FF000000000000000000000096
:1008530000000000000000000808E8292E28E8082E
:1008630008C80C0BE80808000000000000000000A6
:1008730000000000000000000000FF0949897F001C
:10088300000F40807F000000000000000000000017
:1008930000000000000000001060028C0000FE92C7
:1008A30092929292FE0000000000000000000000FF
:1008B300000000000000000004047E01407E42426C
:1008C3007E427E42427E40000000000000000000A5
:1008D30000000000000000000000FC242424FC258C
:1008E3002624FC242424040000000000000000004F
:1008F300000000000000000040308F80844C55252C
:100903002525554C80808000000000000000000079
:100913000000000000000000101010FF109000FE07
:1009230082828292A29E000000000000000000006C
:1009330000000000000000000444827F010000FF6B
:1009430080432C102C4380000000000000000000B6
:10095300000000000000000012EAAFAAEA0FFA024A
:10096300888C5724548C8400000000000000000091
:1009730000000000000000000202EAAAAAABAAAB32
:10098300AAAAAAAAEA0202000000000000000000CE
:100993000000000000000000060909E6F80C04024C
:1009A30002020202041E000000000000000000001A
:1009B3000000000000000000000000071F3020407E
:1009C30040404040201000000000000000000000F4
:0809D30000000000000000001C
:10108A00EF4E60157D087C07ED1DAA0470011C4A0D
:09109A0070F6EF1F70EA1E80E7FA
:0110A300222A
:09114700D286D287C287C286223B
:07115000D286C287D287227C
:0B10E200120FC31210EDAF04120FC379
:0510ED00D286C286223C
:070FBC00AC071211477F781A
:100FC300C286E4FEAD07ED5480B48004D28780026C
:0F0FD300C287EF25E0FFD286C2860EEEB408E596
:010FE20022EC
:0E111F00120FBC1210EDE4FF1210E20211508C
:0E112D00120FBC1210ED7F401210E2021150A2
:100F9000E924B0FFE433FEE4FDFC120FABE4FDFCFA
:0B0FA000FFFE120FAB7F10E4FDFCFE13
:100FAB00AB07AA06ED4C600302112DAF0312111F04
:010FBB002213
:050F6300900019EFF001
:100F6800E4F9120F90E490001AF0900019E0FF7E67
:100F7800007D017C00120FABA3E004F0E0C3948075
:070F880040E809E9B408DBB1
:010F8F00223F
:10104E00D3EF9400EE940040147D657C18ED1D7076
:0D105E00011CED4C70F7EF1F70E61E80E3E3
:01106B002262
:1010BB00EF1FAA0670011E4A600BE4FDEDC3947B83
:0510CB0050EE0D80F75E
:0110D00022FD
:080F2F00900009E0FFA3E0FDC2
:100F3700A907ED24B0FFE433FEE4FDFC120FABE993
:100F470054F0C4540F7E004410FFE4FDFC120FABB5
:0C0F5700E9540FFF7E00E4FDFC020FAB2C
:1010A4007F8D120FA7E4FDFC7F14FE120FABE4FD4D
:0710B400FC7FAFFE020FAB51
:1010D100E4FDFC7F8D120FA1E4FDFC7FAEFE020F4B
:0110E100AB63
:10100A00E4F9120F90E4900000F07D017C00E4FF07
:10101A00FE120FAB900000E004F0E0C3948040EAB7
:05102A0009E9B408DD36
:01102F00229E
:100FE300E4F9120F90E490001DF07D017C007F0175
:100FF3007E00120FAB90001DE004F0E0C39480402C
:06100300E909E9B408DC74
:0110090022C4
:0B0ABB0090000AEDF0900009EFF0FD44
:100AC600E490000DF0F9EB24E0F0EDD3947F400ABA
:100AD600E4900009F0A3E02402F090000CE064101A
:100AE600706E120F2FE4F990000DE075F010A42936
:100AF600F582E435F0F583E582242BF582E583342F
:100B060002F583E493FF7E007D017C00120FAB09A2
:100B1600E9B408D3900009E0FFA3E004FD120F3703
:100B2600E4F990000DE075F010A429F582E435F0A3
:100B3600F583E5822433F582E5833402F583E49375
:100B4600FF7E007D017C00120FAB09E9B408D322B9
:100B5600120F2FE4F990000DE075F006A42403F5BA
:100B660082E5F03400F583E58229F582E43583F5E4
:100B760083E493FF7E007D017C00120FAB09E9B48C
:020B860006D394
:010B8800224A
:07106C00900009EFF0A90557
:101073007F017E00AD0119ED600C900009E0FD7C5D
:0610830000120D3380EEA7
:011089002244
:0E0C4B00900000EFF0A3EDF0A3EAF0A3EBF0B1
:100C5900E4900008F0900006F0900004E0FF900096
:100C690006E0FEC39F4003020D05C3EF9E14FD7FFE
:100C79000A12106C900002E0FCA3E0FDCFCDCFCEAC
:100C8900CCCE120D457C007D0A120D45900007ED72
:100C9900F0A3E07036900004E014FF900006E0FE37
:100CA900C39F5027A3E0701D900005E0FCC3138E7D
:100CB900F0A4FF900000E02FFFA3E0FD90000CECF2
:100CC900F07B20802B9000087401F0900005E0FE75
:100CD900C313FFA3E0FDEF8DF0A4FF900000E02F08
:100CE900FFA3E0FD900007E02430FB90000CEEF03C
:0C0CF900120ABB900006E004F0020C623E
:010D050022CB
:100ECF00900000EFF0A3EDF0A3EBF0A3EAF0A3E99D
:010EDF00F022
:100EE000E4900006F0900002E0FBA3E0FAA3E0F932
:100EF000900006E0F582758300120D06FB602F90CE
:100F00000000E0FFA3E0FD900005E090000CF0126F
:100F10000ABB900000E02408F0E0D394784007E496
:0E0F2000F0A3E02402F0900006E004F080B799
:010F2E0022A0
:0D0E4300900002EBF0900000EFF0A3EDF046
:100E5000E4900003F0120F37E4F9900002E075F01F
:100E600040A4241BF582E5F03408F583E58229F5DA
:100E700082E43583F583E493FF7E007D017C0012DC
:100E80000FAB900003E004F009E9B410CD9000002E
:100E9000E0FFA3E004FD120F37E4F9900002E075D3
:100EA000F040A4243BF582E5F03408F583E582297F
:100EB000F582E43583F583E493FF7E007D017C00B9
:0E0EC000120FAB900003E004F009E9B410CD6E
:010ECE002201
:0A0DB00090000EEFF0900010EBF041
:100DBA00E4900015F0A3F0900011E0FF54077008CA
:100DCA00EF131313541F800A900011E013131354E6
:100DDA001F04900018F0900018EDF0900011E0FF49
:100DEA00900018E0FDC39F504F90000EE0FF120FD5
:100DFA0037E0900017F0900010E0FF900017E0C372
:100E0A009F502D900012E0FBA3E0FAA3E0F9A3E4BF
:100E1A0075F001120D9A85F082F583120D06FF7E98
:100E2A00007D017C00120FAB900017E004F080C631
:080E3A00900018E004F080A311
:010E4200228D
:1009DB00E4FDFC7FAEFE120F9AE4FDFC7F40FE129D
:1009EB000FABE4FDFC7FB0FE120FABE4FDFC7F818F
:1009FB00FE120FABE4FDFC7FFFFE120FABE4FDFC20
:100A0B007FA1FE120FABE4FDFC7FA6FE120FABE441
:100A1B00FDFC7FA8FE120FABE4FDFC7F3FFE120F27
:100A2B00ABE4FDFC7FC8FE120FABE4FDFC7FD3FEF5
:100A3B00120FABE4FDFCFFFE120FABE4FDFC7FD508
:100A4B00FE120FABE4FDFC7F80FE120FABE4FDFC4E
:100A5B007FD8FE120FABE4FDFC7F05FE120FABE45B
:100A6B00FDFC7FD9FE120FABE4FDFC7FF1FE120FF4
:100A7B00ABE4FDFC7FDAFE120FABE4FDFC7F12FE54
:100A8B00120FABE4FDFC7FDBFE120FABE4FDFC7F32
:100A9B0030FE120FABE4FDFC7F8DFE120FABE4FDBD
:100AAB00FC7F14FE120FABE4FDFC7FAFFE020FAB1D
:02115D003A0056
:100B89001210301211571209DB12100A90001BE4DF
:100B9900F0A37426F0C28112100AE4FBFDFF120EC5
:100BA900437B01E4FD7F12120E437B02E4FD7F24A7
:100BB900120E437B03E4FD7F36120E437BFF7A114D
:100BC900795D9000057410F0E4FD7F48120ECF7B2B
:100BD90006E4FD7F6C120E437B047D03E4FF120ED5
:100BE900437B057D037F12120E437B027D037F2425
:100BF900120E437B037D037F36120E437BFF7A116E
:100C0900795D9000057410F07D037F48120ECF9036
:100C1900001BE0FAA3E0FB9000047402F0A3741037
:100C2900F07D037F5A120C4B7B067D037F6C120EFD
:100C3900437F407E1F12108A7F407E1F12108A0256
:020C49000B9E00
:0300000002113BAF
:0C113B00787FE4F6D8FD758107020B896F
:100D0600BB010CE58229F582E5833AF583E02250A2
:100D160006E92582F8E622BBFE06E92582F8E222EC
:0D0D2600E58229F582E5833AF583E4932206
:100D3300EF8DF0A4A8F0CF8CF0A428CE8DF0A42ED4
:020D4300FE228E
:100D4500BC000BBE0029EF8DF084FFADF022E4CC92
:100D5500F875F008EF2FFFEE33FEEC33FCEE9DEC5B
:100D6500984005FCEE9DFE0FD5F0E9E4CEFD22EDA1
:100D7500F8F5F0EE8420D21CFEADF075F008EF2FEB
:100D8500FFED33FD4007985006D5F0F222C398FDDC
:050D95000FD5F0EA2279
:100D9A00A3F8E0C5F025F0F0E5821582700215830C
:060DAA00E0C838F0E82269
:00000001FF
